{
  "_format": "hh-sol-artifact-1",
  "contractName": "NFT",
  "sourceName": "contracts/NFT.sol",
  "abi": [
    {
      "inputs": [
        {
          "internalType": "string",
          "name": "_name",
          "type": "string"
        },
        {
          "internalType": "string",
          "name": "_symbol",
          "type": "string"
        },
        {
          "internalType": "uint256",
          "name": "_cost",
          "type": "uint256"
        }
      ],
      "stateMutability": "nonpayable",
      "type": "constructor"
    },
    {
      "anonymous": false,
      "inputs": [
        {
          "indexed": true,
          "internalType": "address",
          "name": "owner",
          "type": "address"
        },
        {
          "indexed": true,
          "internalType": "address",
          "name": "approved",
          "type": "address"
        },
        {
          "indexed": true,
          "internalType": "uint256",
          "name": "tokenId",
          "type": "uint256"
        }
      ],
      "name": "Approval",
      "type": "event"
    },
    {
      "anonymous": false,
      "inputs": [
        {
          "indexed": true,
          "internalType": "address",
          "name": "owner",
          "type": "address"
        },
        {
          "indexed": true,
          "internalType": "address",
          "name": "operator",
          "type": "address"
        },
        {
          "indexed": false,
          "internalType": "bool",
          "name": "approved",
          "type": "bool"
        }
      ],
      "name": "ApprovalForAll",
      "type": "event"
    },
    {
      "anonymous": false,
      "inputs": [
        {
          "indexed": true,
          "internalType": "address",
          "name": "from",
          "type": "address"
        },
        {
          "indexed": true,
          "internalType": "address",
          "name": "to",
          "type": "address"
        },
        {
          "indexed": true,
          "internalType": "uint256",
          "name": "tokenId",
          "type": "uint256"
        }
      ],
      "name": "Transfer",
      "type": "event"
    },
    {
      "inputs": [
        {
          "internalType": "address",
          "name": "to",
          "type": "address"
        },
        {
          "internalType": "uint256",
          "name": "tokenId",
          "type": "uint256"
        }
      ],
      "name": "approve",
      "outputs": [],
      "stateMutability": "nonpayable",
      "type": "function"
    },
    {
      "inputs": [
        {
          "internalType": "address",
          "name": "owner",
          "type": "address"
        }
      ],
      "name": "balanceOf",
      "outputs": [
        {
          "internalType": "uint256",
          "name": "",
          "type": "uint256"
        }
      ],
      "stateMutability": "view",
      "type": "function"
    },
    {
      "inputs": [],
      "name": "cost",
      "outputs": [
        {
          "internalType": "uint256",
          "name": "",
          "type": "uint256"
        }
      ],
      "stateMutability": "view",
      "type": "function"
    },
    {
      "inputs": [
        {
          "internalType": "uint256",
          "name": "tokenId",
          "type": "uint256"
        }
      ],
      "name": "getApproved",
      "outputs": [
        {
          "internalType": "address",
          "name": "",
          "type": "address"
        }
      ],
      "stateMutability": "view",
      "type": "function"
    },
    {
      "inputs": [
        {
          "internalType": "address",
          "name": "owner",
          "type": "address"
        },
        {
          "internalType": "address",
          "name": "operator",
          "type": "address"
        }
      ],
      "name": "isApprovedForAll",
      "outputs": [
        {
          "internalType": "bool",
          "name": "",
          "type": "bool"
        }
      ],
      "stateMutability": "view",
      "type": "function"
    },
    {
      "inputs": [
        {
          "internalType": "string",
          "name": "tokenURI",
          "type": "string"
        }
      ],
      "name": "mint",
      "outputs": [],
      "stateMutability": "payable",
      "type": "function"
    },
    {
      "inputs": [],
      "name": "name",
      "outputs": [
        {
          "internalType": "string",
          "name": "",
          "type": "string"
        }
      ],
      "stateMutability": "view",
      "type": "function"
    },
    {
      "inputs": [],
      "name": "owner",
      "outputs": [
        {
          "internalType": "address",
          "name": "",
          "type": "address"
        }
      ],
      "stateMutability": "view",
      "type": "function"
    },
    {
      "inputs": [
        {
          "internalType": "uint256",
          "name": "tokenId",
          "type": "uint256"
        }
      ],
      "name": "ownerOf",
      "outputs": [
        {
          "internalType": "address",
          "name": "",
          "type": "address"
        }
      ],
      "stateMutability": "view",
      "type": "function"
    },
    {
      "inputs": [
        {
          "internalType": "address",
          "name": "from",
          "type": "address"
        },
        {
          "internalType": "address",
          "name": "to",
          "type": "address"
        },
        {
          "internalType": "uint256",
          "name": "tokenId",
          "type": "uint256"
        }
      ],
      "name": "safeTransferFrom",
      "outputs": [],
      "stateMutability": "nonpayable",
      "type": "function"
    },
    {
      "inputs": [
        {
          "internalType": "address",
          "name": "from",
          "type": "address"
        },
        {
          "internalType": "address",
          "name": "to",
          "type": "address"
        },
        {
          "internalType": "uint256",
          "name": "tokenId",
          "type": "uint256"
        },
        {
          "internalType": "bytes",
          "name": "data",
          "type": "bytes"
        }
      ],
      "name": "safeTransferFrom",
      "outputs": [],
      "stateMutability": "nonpayable",
      "type": "function"
    },
    {
      "inputs": [
        {
          "internalType": "address",
          "name": "operator",
          "type": "address"
        },
        {
          "internalType": "bool",
          "name": "approved",
          "type": "bool"
        }
      ],
      "name": "setApprovalForAll",
      "outputs": [],
      "stateMutability": "nonpayable",
      "type": "function"
    },
    {
      "inputs": [
        {
          "internalType": "bytes4",
          "name": "interfaceId",
          "type": "bytes4"
        }
      ],
      "name": "supportsInterface",
      "outputs": [
        {
          "internalType": "bool",
          "name": "",
          "type": "bool"
        }
      ],
      "stateMutability": "view",
      "type": "function"
    },
    {
      "inputs": [],
      "name": "symbol",
      "outputs": [
        {
          "internalType": "string",
          "name": "",
          "type": "string"
        }
      ],
      "stateMutability": "view",
      "type": "function"
    },
    {
      "inputs": [
        {
          "internalType": "uint256",
          "name": "tokenId",
          "type": "uint256"
        }
      ],
      "name": "tokenURI",
      "outputs": [
        {
          "internalType": "string",
          "name": "",
          "type": "string"
        }
      ],
      "stateMutability": "view",
      "type": "function"
    },
    {
      "inputs": [],
      "name": "totalSupply",
      "outputs": [
        {
          "internalType": "uint256",
          "name": "",
          "type": "uint256"
        }
      ],
      "stateMutability": "view",
      "type": "function"
    },
    {
      "inputs": [
        {
          "internalType": "address",
          "name": "from",
          "type": "address"
        },
        {
          "internalType": "address",
          "name": "to",
          "type": "address"
        },
        {
          "internalType": "uint256",
          "name": "tokenId",
          "type": "uint256"
        }
      ],
      "name": "transferFrom",
      "outputs": [],
      "stateMutability": "nonpayable",
      "type": "function"
    },
    {
      "inputs": [],
      "name": "withdraw",
      "outputs": [],
      "stateMutability": "nonpayable",
      "type": "function"
    }
  ],
  "bytecode": "0x60806040523480156200001157600080fd5b50604051620033503803806200335083398181016040528101906200003791906200027e565b828281600090816200004a919062000559565b5080600190816200005c919062000559565b50505033600860006101000a81548173ffffffffffffffffffffffffffffffffffffffff021916908373ffffffffffffffffffffffffffffffffffffffff1602179055508060098190555050505062000640565b6000604051905090565b600080fd5b600080fd5b600080fd5b600080fd5b6000601f19601f8301169050919050565b7f4e487b7100000000000000000000000000000000000000000000000000000000600052604160045260246000fd5b6200011982620000ce565b810181811067ffffffffffffffff821117156200013b576200013a620000df565b5b80604052505050565b600062000150620000b0565b90506200015e82826200010e565b919050565b600067ffffffffffffffff821115620001815762000180620000df565b5b6200018c82620000ce565b9050602081019050919050565b60005b83811015620001b95780820151818401526020810190506200019c565b60008484015250505050565b6000620001dc620001d68462000163565b62000144565b905082815260208101848484011115620001fb57620001fa620000c9565b5b6200020884828562000199565b509392505050565b600082601f830112620002285762000227620000c4565b5b81516200023a848260208601620001c5565b91505092915050565b6000819050919050565b620002588162000243565b81146200026457600080fd5b50565b60008151905062000278816200024d565b92915050565b6000806000606084860312156200029a5762000299620000ba565b5b600084015167ffffffffffffffff811115620002bb57620002ba620000bf565b5b620002c98682870162000210565b935050602084015167ffffffffffffffff811115620002ed57620002ec620000bf565b5b620002fb8682870162000210565b92505060406200030e8682870162000267565b9150509250925092565b600081519050919050565b7f4e487b7100000000000000000000000000000000000000000000000000000000600052602260045260246000fd5b600060028204905060018216806200036b57607f821691505b60208210810362000381576200038062000323565b5b50919050565b60008190508160005260206000209050919050565b60006020601f8301049050919050565b600082821b905092915050565b600060088302620003eb7fffffffffffffffffffffffffffffffffffffffffffffffffffffffffffffffff82620003ac565b620003f78683620003ac565b95508019841693508086168417925050509392505050565b6000819050919050565b60006200043a620004346200042e8462000243565b6200040f565b62000243565b9050919050565b6000819050919050565b620004568362000419565b6200046e620004658262000441565b848454620003b9565b825550505050565b600090565b6200048562000476565b620004928184846200044b565b505050565b5b81811015620004ba57620004ae6000826200047b565b60018101905062000498565b5050565b601f8211156200050957620004d38162000387565b620004de846200039c565b81016020851015620004ee578190505b62000506620004fd856200039c565b83018262000497565b50505b505050565b600082821c905092915050565b60006200052e600019846008026200050e565b1980831691505092915050565b60006200054983836200051b565b9150826002028217905092915050565b620005648262000318565b67ffffffffffffffff81111562000580576200057f620000df565b5b6200058c825462000352565b62000599828285620004be565b600060209050601f831160018114620005d15760008415620005bc578287015190505b620005c885826200053b565b86555062000638565b601f198416620005e18662000387565b60005b828110156200060b57848901518255600182019150602085019450602081019050620005e4565b868310156200062b578489015162000627601f8916826200051b565b8355505b6001600288020188555050505b505050505050565b612d0080620006506000396000f3fe6080604052600436106101095760003560e01c80636352211e11610095578063a22cb46511610064578063a22cb4651461036b578063b88d4fde14610394578063c87b56dd146103bd578063d85d3d27146103fa578063e985e9c51461041657610109565b80636352211e1461029b57806370a08231146102d85780638da5cb5b1461031557806395d89b411461034057610109565b806313faede6116100dc57806313faede6146101dc57806318160ddd1461020757806323b872dd146102325780633ccfd60b1461025b57806342842e0e1461027257610109565b806301ffc9a71461010e57806306fdde031461014b578063081812fc14610176578063095ea7b3146101b3575b600080fd5b34801561011a57600080fd5b5061013560048036038101906101309190611bbc565b610453565b6040516101429190611c04565b60405180910390f35b34801561015757600080fd5b50610160610535565b60405161016d9190611caf565b60405180910390f35b34801561018257600080fd5b5061019d60048036038101906101989190611d07565b6105c7565b6040516101aa9190611d75565b60405180910390f35b3480156101bf57600080fd5b506101da60048036038101906101d59190611dbc565b61060d565b005b3480156101e857600080fd5b506101f1610724565b6040516101fe9190611e0b565b60405180910390f35b34801561021357600080fd5b5061021c61072a565b6040516102299190611e0b565b60405180910390f35b34801561023e57600080fd5b5061025960048036038101906102549190611e26565b61073b565b005b34801561026757600080fd5b5061027061079b565b005b34801561027e57600080fd5b5061029960048036038101906102949190611e26565b610890565b005b3480156102a757600080fd5b506102c260048036038101906102bd9190611d07565b6108b0565b6040516102cf9190611d75565b60405180910390f35b3480156102e457600080fd5b506102ff60048036038101906102fa9190611e79565b610936565b60405161030c9190611e0b565b60405180910390f35b34801561032157600080fd5b5061032a6109ed565b6040516103379190611d75565b60405180910390f35b34801561034c57600080fd5b50610355610a13565b6040516103629190611caf565b60405180910390f35b34801561037757600080fd5b50610392600480360381019061038d9190611ed2565b610aa5565b005b3480156103a057600080fd5b506103bb60048036038101906103b69190612047565b610abb565b005b3480156103c957600080fd5b506103e460048036038101906103df9190611d07565b610b1d565b6040516103f19190611caf565b60405180910390f35b610414600480360381019061040f919061216b565b610c2f565b005b34801561042257600080fd5b5061043d600480360381019061043891906121b4565b610c6e565b60405161044a9190611c04565b60405180910390f35b60007f80ac58cd000000000000000000000000000000000000000000000000000000007bffffffffffffffffffffffffffffffffffffffffffffffffffffffff1916827bffffffffffffffffffffffffffffffffffffffffffffffffffffffff1916148061051e57507f5b5e139f000000000000000000000000000000000000000000000000000000007bffffffffffffffffffffffffffffffffffffffffffffffffffffffff1916827bffffffffffffffffffffffffffffffffffffffffffffffffffffffff1916145b8061052e575061052d82610d02565b5b9050919050565b60606000805461054490612223565b80601f016020809104026020016040519081016040528092919081815260200182805461057090612223565b80156105bd5780601f10610592576101008083540402835291602001916105bd565b820191906000526020600020905b8154815290600101906020018083116105a057829003601f168201915b5050505050905090565b60006105d282610d6c565b6004600083815260200190815260200160002060009054906101000a900473ffffffffffffffffffffffffffffffffffffffff169050919050565b6000610618826108b0565b90508073ffffffffffffffffffffffffffffffffffffffff168373ffffffffffffffffffffffffffffffffffffffff1603610688576040517f08c379a000000000000000000000000000000000000000000000000000000000815260040161067f906122c6565b60405180910390fd5b8073ffffffffffffffffffffffffffffffffffffffff166106a7610db7565b73ffffffffffffffffffffffffffffffffffffffff1614806106d657506106d5816106d0610db7565b610c6e565b5b610715576040517f08c379a000000000000000000000000000000000000000000000000000000000815260040161070c90612358565b60405180910390fd5b61071f8383610dbf565b505050565b60095481565b60006107366007610e78565b905090565b61074c610746610db7565b82610e86565b61078b576040517f08c379a0000000000000000000000000000000000000000000000000000000008152600401610782906123ea565b60405180910390fd5b610796838383610f1b565b505050565b600860009054906101000a900473ffffffffffffffffffffffffffffffffffffffff1673ffffffffffffffffffffffffffffffffffffffff163373ffffffffffffffffffffffffffffffffffffffff16146107f557600080fd5b6000600860009054906101000a900473ffffffffffffffffffffffffffffffffffffffff1673ffffffffffffffffffffffffffffffffffffffff164760405161083d9061243b565b60006040518083038185875af1925050503d806000811461087a576040519150601f19603f3d011682016040523d82523d6000602084013e61087f565b606091505b505090508061088d57600080fd5b50565b6108ab83838360405180602001604052806000815250610abb565b505050565b6000806108bc83611214565b9050600073ffffffffffffffffffffffffffffffffffffffff168173ffffffffffffffffffffffffffffffffffffffff160361092d576040517f08c379a00000000000000000000000000000000000000000000000000000000081526004016109249061249c565b60405180910390fd5b80915050919050565b60008073ffffffffffffffffffffffffffffffffffffffff168273ffffffffffffffffffffffffffffffffffffffff16036109a6576040517f08c379a000000000000000000000000000000000000000000000000000000000815260040161099d9061252e565b60405180910390fd5b600360008373ffffffffffffffffffffffffffffffffffffffff1673ffffffffffffffffffffffffffffffffffffffff168152602001908152602001600020549050919050565b600860009054906101000a900473ffffffffffffffffffffffffffffffffffffffff1681565b606060018054610a2290612223565b80601f0160208091040260200160405190810160405280929190818152602001828054610a4e90612223565b8015610a9b5780601f10610a7057610100808354040283529160200191610a9b565b820191906000526020600020905b815481529060010190602001808311610a7e57829003601f168201915b5050505050905090565b610ab7610ab0610db7565b8383611251565b5050565b610acc610ac6610db7565b83610e86565b610b0b576040517f08c379a0000000000000000000000000000000000000000000000000000000008152600401610b02906123ea565b60405180910390fd5b610b17848484846113bd565b50505050565b6060610b2882610d6c565b6000600660008481526020019081526020016000208054610b4890612223565b80601f0160208091040260200160405190810160405280929190818152602001828054610b7490612223565b8015610bc15780601f10610b9657610100808354040283529160200191610bc1565b820191906000526020600020905b815481529060010190602001808311610ba457829003601f168201915b505050505090506000610bd2611419565b90506000815103610be7578192505050610c2a565b600082511115610c1c578082604051602001610c0492919061258a565b60405160208183030381529060405292505050610c2a565b610c2584611430565b925050505b919050565b600954341015610c3e57600080fd5b610c486007611498565b6000610c546007610e78565b9050610c6033826114ae565b610c6a81836116cb565b5050565b6000600560008473ffffffffffffffffffffffffffffffffffffffff1673ffffffffffffffffffffffffffffffffffffffff16815260200190815260200160002060008373ffffffffffffffffffffffffffffffffffffffff1673ffffffffffffffffffffffffffffffffffffffff16815260200190815260200160002060009054906101000a900460ff16905092915050565b60007f01ffc9a7000000000000000000000000000000000000000000000000000000007bffffffffffffffffffffffffffffffffffffffffffffffffffffffff1916827bffffffffffffffffffffffffffffffffffffffffffffffffffffffff1916149050919050565b610d7581611738565b610db4576040517f08c379a0000000000000000000000000000000000000000000000000000000008152600401610dab9061249c565b60405180910390fd5b50565b600033905090565b816004600083815260200190815260200160002060006101000a81548173ffffffffffffffffffffffffffffffffffffffff021916908373ffffffffffffffffffffffffffffffffffffffff160217905550808273ffffffffffffffffffffffffffffffffffffffff16610e32836108b0565b73ffffffffffffffffffffffffffffffffffffffff167f8c5be1e5ebec7d5bd14f71427d1e84f3dd0314c0f7b2291e5b200ac8c7c3b92560405160405180910390a45050565b600081600001549050919050565b600080610e92836108b0565b90508073ffffffffffffffffffffffffffffffffffffffff168473ffffffffffffffffffffffffffffffffffffffff161480610ed45750610ed38185610c6e565b5b80610f1257508373ffffffffffffffffffffffffffffffffffffffff16610efa846105c7565b73ffffffffffffffffffffffffffffffffffffffff16145b91505092915050565b8273ffffffffffffffffffffffffffffffffffffffff16610f3b826108b0565b73ffffffffffffffffffffffffffffffffffffffff1614610f91576040517f08c379a0000000000000000000000000000000000000000000000000000000008152600401610f8890612620565b60405180910390fd5b600073ffffffffffffffffffffffffffffffffffffffff168273ffffffffffffffffffffffffffffffffffffffff1603611000576040517f08c379a0000000000000000000000000000000000000000000000000000000008152600401610ff7906126b2565b60405180910390fd5b61100d8383836001611779565b8273ffffffffffffffffffffffffffffffffffffffff1661102d826108b0565b73ffffffffffffffffffffffffffffffffffffffff1614611083576040517f08c379a000000000000000000000000000000000000000000000000000000000815260040161107a90612620565b60405180910390fd5b6004600082815260200190815260200160002060006101000a81549073ffffffffffffffffffffffffffffffffffffffff02191690556001600360008573ffffffffffffffffffffffffffffffffffffffff1673ffffffffffffffffffffffffffffffffffffffff168152602001908152602001600020600082825403925050819055506001600360008473ffffffffffffffffffffffffffffffffffffffff1673ffffffffffffffffffffffffffffffffffffffff16815260200190815260200160002060008282540192505081905550816002600083815260200190815260200160002060006101000a81548173ffffffffffffffffffffffffffffffffffffffff021916908373ffffffffffffffffffffffffffffffffffffffff160217905550808273ffffffffffffffffffffffffffffffffffffffff168473ffffffffffffffffffffffffffffffffffffffff167fddf252ad1be2c89b69c2b068fc378daa952ba7f163c4a11628f55a4df523b3ef60405160405180910390a461120f838383600161177f565b505050565b60006002600083815260200190815260200160002060009054906101000a900473ffffffffffffffffffffffffffffffffffffffff169050919050565b8173ffffffffffffffffffffffffffffffffffffffff168373ffffffffffffffffffffffffffffffffffffffff16036112bf576040517f08c379a00000000000000000000000000000000000000000000000000000000081526004016112b69061271e565b60405180910390fd5b80600560008573ffffffffffffffffffffffffffffffffffffffff1673ffffffffffffffffffffffffffffffffffffffff16815260200190815260200160002060008473ffffffffffffffffffffffffffffffffffffffff1673ffffffffffffffffffffffffffffffffffffffff16815260200190815260200160002060006101000a81548160ff0219169083151502179055508173ffffffffffffffffffffffffffffffffffffffff168373ffffffffffffffffffffffffffffffffffffffff167f17307eab39ab6107e8899845ad3d59bd9653f200f220920489ca2b5937696c31836040516113b09190611c04565b60405180910390a3505050565b6113c8848484610f1b565b6113d484848484611785565b611413576040517f08c379a000000000000000000000000000000000000000000000000000000000815260040161140a906127b0565b60405180910390fd5b50505050565b606060405180602001604052806000815250905090565b606061143b82610d6c565b6000611445611419565b905060008151116114655760405180602001604052806000815250611490565b8061146f8461190c565b60405160200161148092919061258a565b6040516020818303038152906040525b915050919050565b6001816000016000828254019250508190555050565b600073ffffffffffffffffffffffffffffffffffffffff168273ffffffffffffffffffffffffffffffffffffffff160361151d576040517f08c379a00000000000000000000000000000000000000000000000000000000081526004016115149061281c565b60405180910390fd5b61152681611738565b15611566576040517f08c379a000000000000000000000000000000000000000000000000000000000815260040161155d90612888565b60405180910390fd5b611574600083836001611779565b61157d81611738565b156115bd576040517f08c379a00000000000000000000000000000000000000000000000000000000081526004016115b490612888565b60405180910390fd5b6001600360008473ffffffffffffffffffffffffffffffffffffffff1673ffffffffffffffffffffffffffffffffffffffff16815260200190815260200160002060008282540192505081905550816002600083815260200190815260200160002060006101000a81548173ffffffffffffffffffffffffffffffffffffffff021916908373ffffffffffffffffffffffffffffffffffffffff160217905550808273ffffffffffffffffffffffffffffffffffffffff16600073ffffffffffffffffffffffffffffffffffffffff167fddf252ad1be2c89b69c2b068fc378daa952ba7f163c4a11628f55a4df523b3ef60405160405180910390a46116c760008383600161177f565b5050565b6116d482611738565b611713576040517f08c379a000000000000000000000000000000000000000000000000000000000815260040161170a9061291a565b60405180910390fd5b806006600084815260200190815260200160002090816117339190612ae6565b505050565b60008073ffffffffffffffffffffffffffffffffffffffff1661175a83611214565b73ffffffffffffffffffffffffffffffffffffffff1614159050919050565b50505050565b50505050565b60006117a68473ffffffffffffffffffffffffffffffffffffffff166119da565b156118ff578373ffffffffffffffffffffffffffffffffffffffff1663150b7a026117cf610db7565b8786866040518563ffffffff1660e01b81526004016117f19493929190612c0d565b6020604051808303816000875af192505050801561182d57506040513d601f19601f8201168201806040525081019061182a9190612c6e565b60015b6118af573d806000811461185d576040519150601f19603f3d011682016040523d82523d6000602084013e611862565b606091505b5060008151036118a7576040517f08c379a000000000000000000000000000000000000000000000000000000000815260040161189e906127b0565b60405180910390fd5b805181602001fd5b63150b7a0260e01b7bffffffffffffffffffffffffffffffffffffffffffffffffffffffff1916817bffffffffffffffffffffffffffffffffffffffffffffffffffffffff191614915050611904565b600190505b949350505050565b60606000600161191b846119fd565b01905060008167ffffffffffffffff81111561193a57611939611f1c565b5b6040519080825280601f01601f19166020018201604052801561196c5781602001600182028036833780820191505090505b509050600082602001820190505b6001156119cf578080600190039150507f3031323334353637383961626364656600000000000000000000000000000000600a86061a8153600a85816119c3576119c2612c9b565b5b0494506000850361197a575b819350505050919050565b6000808273ffffffffffffffffffffffffffffffffffffffff163b119050919050565b600080600090507a184f03e93ff9f4daa797ed6e38ed64bf6a1f0100000000000000008310611a5b577a184f03e93ff9f4daa797ed6e38ed64bf6a1f0100000000000000008381611a5157611a50612c9b565b5b0492506040810190505b6d04ee2d6d415b85acef81000000008310611a98576d04ee2d6d415b85acef81000000008381611a8e57611a8d612c9b565b5b0492506020810190505b662386f26fc100008310611ac757662386f26fc100008381611abd57611abc612c9b565b5b0492506010810190505b6305f5e1008310611af0576305f5e1008381611ae657611ae5612c9b565b5b0492506008810190505b6127108310611b15576127108381611b0b57611b0a612c9b565b5b0492506004810190505b60648310611b385760648381611b2e57611b2d612c9b565b5b0492506002810190505b600a8310611b47576001810190505b80915050919050565b6000604051905090565b600080fd5b600080fd5b60007fffffffff0000000000000000000000000000000000000000000000000000000082169050919050565b611b9981611b64565b8114611ba457600080fd5b50565b600081359050611bb681611b90565b92915050565b600060208284031215611bd257611bd1611b5a565b5b6000611be084828501611ba7565b91505092915050565b60008115159050919050565b611bfe81611be9565b82525050565b6000602082019050611c196000830184611bf5565b92915050565b600081519050919050565b600082825260208201905092915050565b60005b83811015611c59578082015181840152602081019050611c3e565b60008484015250505050565b6000601f19601f8301169050919050565b6000611c8182611c1f565b611c8b8185611c2a565b9350611c9b818560208601611c3b565b611ca481611c65565b840191505092915050565b60006020820190508181036000830152611cc98184611c76565b905092915050565b6000819050919050565b611ce481611cd1565b8114611cef57600080fd5b50565b600081359050611d0181611cdb565b92915050565b600060208284031215611d1d57611d1c611b5a565b5b6000611d2b84828501611cf2565b91505092915050565b600073ffffffffffffffffffffffffffffffffffffffff82169050919050565b6000611d5f82611d34565b9050919050565b611d6f81611d54565b82525050565b6000602082019050611d8a6000830184611d66565b92915050565b611d9981611d54565b8114611da457600080fd5b50565b600081359050611db681611d90565b92915050565b60008060408385031215611dd357611dd2611b5a565b5b6000611de185828601611da7565b9250506020611df285828601611cf2565b9150509250929050565b611e0581611cd1565b82525050565b6000602082019050611e206000830184611dfc565b92915050565b600080600060608486031215611e3f57611e3e611b5a565b5b6000611e4d86828701611da7565b9350506020611e5e86828701611da7565b9250506040611e6f86828701611cf2565b9150509250925092565b600060208284031215611e8f57611e8e611b5a565b5b6000611e9d84828501611da7565b91505092915050565b611eaf81611be9565b8114611eba57600080fd5b50565b600081359050611ecc81611ea6565b92915050565b60008060408385031215611ee957611ee8611b5a565b5b6000611ef785828601611da7565b9250506020611f0885828601611ebd565b9150509250929050565b600080fd5b600080fd5b7f4e487b7100000000000000000000000000000000000000000000000000000000600052604160045260246000fd5b611f5482611c65565b810181811067ffffffffffffffff82111715611f7357611f72611f1c565b5b80604052505050565b6000611f86611b50565b9050611f928282611f4b565b919050565b600067ffffffffffffffff821115611fb257611fb1611f1c565b5b611fbb82611c65565b9050602081019050919050565b82818337600083830152505050565b6000611fea611fe584611f97565b611f7c565b90508281526020810184848401111561200657612005611f17565b5b612011848285611fc8565b509392505050565b600082601f83011261202e5761202d611f12565b5b813561203e848260208601611fd7565b91505092915050565b6000806000806080858703121561206157612060611b5a565b5b600061206f87828801611da7565b945050602061208087828801611da7565b935050604061209187828801611cf2565b925050606085013567ffffffffffffffff8111156120b2576120b1611b5f565b5b6120be87828801612019565b91505092959194509250565b600067ffffffffffffffff8211156120e5576120e4611f1c565b5b6120ee82611c65565b9050602081019050919050565b600061210e612109846120ca565b611f7c565b90508281526020810184848401111561212a57612129611f17565b5b612135848285611fc8565b509392505050565b600082601f83011261215257612151611f12565b5b81356121628482602086016120fb565b91505092915050565b60006020828403121561218157612180611b5a565b5b600082013567ffffffffffffffff81111561219f5761219e611b5f565b5b6121ab8482850161213d565b91505092915050565b600080604083850312156121cb576121ca611b5a565b5b60006121d985828601611da7565b92505060206121ea85828601611da7565b9150509250929050565b7f4e487b7100000000000000000000000000000000000000000000000000000000600052602260045260246000fd5b6000600282049050600182168061223b57607f821691505b60208210810361224e5761224d6121f4565b5b50919050565b7f4552433732313a20617070726f76616c20746f2063757272656e74206f776e6560008201527f7200000000000000000000000000000000000000000000000000000000000000602082015250565b60006122b0602183611c2a565b91506122bb82612254565b604082019050919050565b600060208201905081810360008301526122df816122a3565b9050919050565b7f4552433732313a20617070726f76652063616c6c6572206973206e6f7420746f60008201527f6b656e206f776e6572206f7220617070726f76656420666f7220616c6c000000602082015250565b6000612342603d83611c2a565b915061234d826122e6565b604082019050919050565b6000602082019050818103600083015261237181612335565b9050919050565b7f4552433732313a2063616c6c6572206973206e6f7420746f6b656e206f776e6560008201527f72206f7220617070726f76656400000000000000000000000000000000000000602082015250565b60006123d4602d83611c2a565b91506123df82612378565b604082019050919050565b60006020820190508181036000830152612403816123c7565b9050919050565b600081905092915050565b50565b600061242560008361240a565b915061243082612415565b600082019050919050565b600061244682612418565b9150819050919050565b7f4552433732313a20696e76616c696420746f6b656e2049440000000000000000600082015250565b6000612486601883611c2a565b915061249182612450565b602082019050919050565b600060208201905081810360008301526124b581612479565b9050919050565b7f4552433732313a2061646472657373207a65726f206973206e6f74206120766160008201527f6c6964206f776e65720000000000000000000000000000000000000000000000602082015250565b6000612518602983611c2a565b9150612523826124bc565b604082019050919050565b600060208201905081810360008301526125478161250b565b9050919050565b600081905092915050565b600061256482611c1f565b61256e818561254e565b935061257e818560208601611c3b565b80840191505092915050565b60006125968285612559565b91506125a28284612559565b91508190509392505050565b7f4552433732313a207472616e736665722066726f6d20696e636f72726563742060008201527f6f776e6572000000000000000000000000000000000000000000000000000000602082015250565b600061260a602583611c2a565b9150612615826125ae565b604082019050919050565b60006020820190508181036000830152612639816125fd565b9050919050565b7f4552433732313a207472616e7366657220746f20746865207a65726f2061646460008201527f7265737300000000000000000000000000000000000000000000000000000000602082015250565b600061269c602483611c2a565b91506126a782612640565b604082019050919050565b600060208201905081810360008301526126cb8161268f565b9050919050565b7f4552433732313a20617070726f766520746f2063616c6c657200000000000000600082015250565b6000612708601983611c2a565b9150612713826126d2565b602082019050919050565b60006020820190508181036000830152612737816126fb565b9050919050565b7f4552433732313a207472616e7366657220746f206e6f6e20455243373231526560008201527f63656976657220696d706c656d656e7465720000000000000000000000000000602082015250565b600061279a603283611c2a565b91506127a58261273e565b604082019050919050565b600060208201905081810360008301526127c98161278d565b9050919050565b7f4552433732313a206d696e7420746f20746865207a65726f2061646472657373600082015250565b6000612806602083611c2a565b9150612811826127d0565b602082019050919050565b60006020820190508181036000830152612835816127f9565b9050919050565b7f4552433732313a20746f6b656e20616c7265616479206d696e74656400000000600082015250565b6000612872601c83611c2a565b915061287d8261283c565b602082019050919050565b600060208201905081810360008301526128a181612865565b9050919050565b7f45524337323155524953746f726167653a2055524920736574206f66206e6f6e60008201527f6578697374656e7420746f6b656e000000000000000000000000000000000000602082015250565b6000612904602e83611c2a565b915061290f826128a8565b604082019050919050565b60006020820190508181036000830152612933816128f7565b9050919050565b60008190508160005260206000209050919050565b60006020601f8301049050919050565b600082821b905092915050565b60006008830261299c7fffffffffffffffffffffffffffffffffffffffffffffffffffffffffffffffff8261295f565b6129a6868361295f565b95508019841693508086168417925050509392505050565b6000819050919050565b60006129e36129de6129d984611cd1565b6129be565b611cd1565b9050919050565b6000819050919050565b6129fd836129c8565b612a11612a09826129ea565b84845461296c565b825550505050565b600090565b612a26612a19565b612a318184846129f4565b505050565b5b81811015612a5557612a4a600082612a1e565b600181019050612a37565b5050565b601f821115612a9a57612a6b8161293a565b612a748461294f565b81016020851015612a83578190505b612a97612a8f8561294f565b830182612a36565b50505b505050565b600082821c905092915050565b6000612abd60001984600802612a9f565b1980831691505092915050565b6000612ad68383612aac565b9150826002028217905092915050565b612aef82611c1f565b67ffffffffffffffff811115612b0857612b07611f1c565b5b612b128254612223565b612b1d828285612a59565b600060209050601f831160018114612b505760008415612b3e578287015190505b612b488582612aca565b865550612bb0565b601f198416612b5e8661293a565b60005b82811015612b8657848901518255600182019150602085019450602081019050612b61565b86831015612ba35784890151612b9f601f891682612aac565b8355505b6001600288020188555050505b505050505050565b600081519050919050565b600082825260208201905092915050565b6000612bdf82612bb8565b612be98185612bc3565b9350612bf9818560208601611c3b565b612c0281611c65565b840191505092915050565b6000608082019050612c226000830187611d66565b612c2f6020830186611d66565b612c3c6040830185611dfc565b8181036060830152612c4e8184612bd4565b905095945050505050565b600081519050612c6881611b90565b92915050565b600060208284031215612c8457612c83611b5a565b5b6000612c9284828501612c59565b91505092915050565b7f4e487b7100000000000000000000000000000000000000000000000000000000600052601260045260246000fdfea2646970667358221220d7cce0384552e63a09be9489d2e77ebc0c02697fd21407e2e8ca90311a64d0f664736f6c63430008110033",
  "linkReferences": {},
  "deployedLinkReferences": {}
}